{
  "contractName": "Certplace",
  "abi": [
    {
      "inputs": [],
      "stateMutability": "nonpayable",
      "type": "constructor"
    },
    {
      "anonymous": false,
      "inputs": [
        {
          "indexed": false,
          "internalType": "uint256",
          "name": "id",
          "type": "uint256"
        },
        {
          "indexed": false,
          "internalType": "string",
          "name": "name",
          "type": "string"
        },
        {
          "indexed": false,
          "internalType": "string",
          "name": "lastName",
          "type": "string"
        },
        {
          "indexed": false,
          "internalType": "string",
          "name": "email",
          "type": "string"
        },
        {
          "indexed": false,
          "internalType": "string",
          "name": "phone",
          "type": "string"
        },
        {
          "indexed": false,
          "internalType": "string",
          "name": "homeAddress",
          "type": "string"
        },
        {
          "indexed": false,
          "internalType": "string",
          "name": "nationalId",
          "type": "string"
        },
        {
          "indexed": false,
          "internalType": "address payable",
          "name": "wallet",
          "type": "address"
        },
        {
          "indexed": false,
          "internalType": "uint256",
          "name": "institute",
          "type": "uint256"
        }
      ],
      "name": "ApplicantAdded",
      "type": "event"
    },
    {
      "anonymous": false,
      "inputs": [
        {
          "indexed": false,
          "internalType": "uint256",
          "name": "id",
          "type": "uint256"
        },
        {
          "indexed": false,
          "internalType": "string",
          "name": "name",
          "type": "string"
        },
        {
          "indexed": false,
          "internalType": "string",
          "name": "instType",
          "type": "string"
        },
        {
          "indexed": false,
          "internalType": "string",
          "name": "description",
          "type": "string"
        },
        {
          "indexed": false,
          "internalType": "string",
          "name": "location",
          "type": "string"
        },
        {
          "indexed": false,
          "internalType": "string",
          "name": "phone",
          "type": "string"
        },
        {
          "indexed": false,
          "internalType": "string",
          "name": "email",
          "type": "string"
        },
        {
          "indexed": false,
          "internalType": "address payable",
          "name": "wallet",
          "type": "address"
        }
      ],
      "name": "InstituteCreated",
      "type": "event"
    },
    {
      "anonymous": false,
      "inputs": [
        {
          "indexed": false,
          "internalType": "uint256",
          "name": "id",
          "type": "uint256"
        },
        {
          "indexed": false,
          "internalType": "string",
          "name": "name",
          "type": "string"
        },
        {
          "indexed": false,
          "internalType": "string",
          "name": "lastName",
          "type": "string"
        },
        {
          "indexed": false,
          "internalType": "string",
          "name": "email",
          "type": "string"
        },
        {
          "indexed": false,
          "internalType": "string",
          "name": "phone",
          "type": "string"
        },
        {
          "indexed": false,
          "internalType": "address payable",
          "name": "wallet",
          "type": "address"
        },
        {
          "indexed": false,
          "internalType": "uint256",
          "name": "institute",
          "type": "uint256"
        }
      ],
      "name": "LecturerAdded",
      "type": "event"
    },
    {
      "anonymous": false,
      "inputs": [
        {
          "indexed": false,
          "internalType": "uint256",
          "name": "id",
          "type": "uint256"
        },
        {
          "indexed": false,
          "internalType": "string",
          "name": "name",
          "type": "string"
        },
        {
          "indexed": false,
          "internalType": "string",
          "name": "description",
          "type": "string"
        },
        {
          "indexed": false,
          "internalType": "string",
          "name": "orgType",
          "type": "string"
        },
        {
          "indexed": false,
          "internalType": "string",
          "name": "location",
          "type": "string"
        },
        {
          "indexed": false,
          "internalType": "string",
          "name": "phone",
          "type": "string"
        },
        {
          "indexed": false,
          "internalType": "string",
          "name": "email",
          "type": "string"
        },
        {
          "indexed": false,
          "internalType": "address payable",
          "name": "wallet",
          "type": "address"
        }
      ],
      "name": "OrganisationAdded",
      "type": "event"
    },
    {
      "anonymous": false,
      "inputs": [
        {
          "indexed": false,
          "internalType": "address",
          "name": "from",
          "type": "address"
        },
        {
          "indexed": false,
          "internalType": "address",
          "name": "to",
          "type": "address"
        },
        {
          "indexed": false,
          "internalType": "uint256",
          "name": "tokens",
          "type": "uint256"
        }
      ],
      "name": "RecordPublished",
      "type": "event"
    },
    {
      "anonymous": false,
      "inputs": [
        {
          "indexed": false,
          "internalType": "uint256",
          "name": "id",
          "type": "uint256"
        },
        {
          "indexed": false,
          "internalType": "uint256",
          "name": "sender",
          "type": "uint256"
        },
        {
          "indexed": false,
          "internalType": "uint256",
          "name": "receiver",
          "type": "uint256"
        },
        {
          "indexed": false,
          "internalType": "bool",
          "name": "responded",
          "type": "bool"
        },
        {
          "indexed": false,
          "internalType": "bool",
          "name": "response",
          "type": "bool"
        }
      ],
      "name": "RequestAdded",
      "type": "event"
    },
    {
      "inputs": [],
      "name": "applicantCount",
      "outputs": [
        {
          "internalType": "uint256",
          "name": "",
          "type": "uint256"
        }
      ],
      "stateMutability": "view",
      "type": "function",
      "constant": true
    },
    {
      "inputs": [
        {
          "internalType": "uint256",
          "name": "",
          "type": "uint256"
        }
      ],
      "name": "applicants",
      "outputs": [
        {
          "internalType": "uint256",
          "name": "id",
          "type": "uint256"
        },
        {
          "internalType": "string",
          "name": "name",
          "type": "string"
        },
        {
          "internalType": "string",
          "name": "lastName",
          "type": "string"
        },
        {
          "internalType": "string",
          "name": "email",
          "type": "string"
        },
        {
          "internalType": "string",
          "name": "phone",
          "type": "string"
        },
        {
          "internalType": "string",
          "name": "homeAddress",
          "type": "string"
        },
        {
          "internalType": "string",
          "name": "nationalId",
          "type": "string"
        },
        {
          "internalType": "address payable",
          "name": "wallet",
          "type": "address"
        },
        {
          "internalType": "uint256",
          "name": "institute",
          "type": "uint256"
        }
      ],
      "stateMutability": "view",
      "type": "function",
      "constant": true
    },
    {
      "inputs": [],
      "name": "instCount",
      "outputs": [
        {
          "internalType": "uint256",
          "name": "",
          "type": "uint256"
        }
      ],
      "stateMutability": "view",
      "type": "function",
      "constant": true
    },
    {
      "inputs": [
        {
          "internalType": "uint256",
          "name": "",
          "type": "uint256"
        }
      ],
      "name": "institutes",
      "outputs": [
        {
          "internalType": "uint256",
          "name": "id",
          "type": "uint256"
        },
        {
          "internalType": "string",
          "name": "name",
          "type": "string"
        },
        {
          "internalType": "string",
          "name": "instType",
          "type": "string"
        },
        {
          "internalType": "string",
          "name": "description",
          "type": "string"
        },
        {
          "internalType": "string",
          "name": "location",
          "type": "string"
        },
        {
          "internalType": "string",
          "name": "phone",
          "type": "string"
        },
        {
          "internalType": "string",
          "name": "email",
          "type": "string"
        },
        {
          "internalType": "address payable",
          "name": "wallet",
          "type": "address"
        }
      ],
      "stateMutability": "view",
      "type": "function",
      "constant": true
    },
    {
      "inputs": [],
      "name": "lecCount",
      "outputs": [
        {
          "internalType": "uint256",
          "name": "",
          "type": "uint256"
        }
      ],
      "stateMutability": "view",
      "type": "function",
      "constant": true
    },
    {
      "inputs": [
        {
          "internalType": "uint256",
          "name": "",
          "type": "uint256"
        }
      ],
      "name": "lectures",
      "outputs": [
        {
          "internalType": "uint256",
          "name": "id",
          "type": "uint256"
        },
        {
          "internalType": "string",
          "name": "name",
          "type": "string"
        },
        {
          "internalType": "string",
          "name": "lastName",
          "type": "string"
        },
        {
          "internalType": "string",
          "name": "email",
          "type": "string"
        },
        {
          "internalType": "string",
          "name": "phone",
          "type": "string"
        },
        {
          "internalType": "address payable",
          "name": "wallet",
          "type": "address"
        },
        {
          "internalType": "uint256",
          "name": "institute",
          "type": "uint256"
        }
      ],
      "stateMutability": "view",
      "type": "function",
      "constant": true
    },
    {
      "inputs": [],
      "name": "name",
      "outputs": [
        {
          "internalType": "string",
          "name": "",
          "type": "string"
        }
      ],
      "stateMutability": "view",
      "type": "function",
      "constant": true
    },
    {
      "inputs": [],
      "name": "orgCount",
      "outputs": [
        {
          "internalType": "uint256",
          "name": "",
          "type": "uint256"
        }
      ],
      "stateMutability": "view",
      "type": "function",
      "constant": true
    },
    {
      "inputs": [
        {
          "internalType": "uint256",
          "name": "",
          "type": "uint256"
        }
      ],
      "name": "organisations",
      "outputs": [
        {
          "internalType": "uint256",
          "name": "id",
          "type": "uint256"
        },
        {
          "internalType": "string",
          "name": "name",
          "type": "string"
        },
        {
          "internalType": "string",
          "name": "description",
          "type": "string"
        },
        {
          "internalType": "string",
          "name": "orgType",
          "type": "string"
        },
        {
          "internalType": "string",
          "name": "location",
          "type": "string"
        },
        {
          "internalType": "string",
          "name": "phone",
          "type": "string"
        },
        {
          "internalType": "string",
          "name": "email",
          "type": "string"
        },
        {
          "internalType": "address payable",
          "name": "wallet",
          "type": "address"
        }
      ],
      "stateMutability": "view",
      "type": "function",
      "constant": true
    },
    {
      "inputs": [],
      "name": "requestCount",
      "outputs": [
        {
          "internalType": "uint256",
          "name": "",
          "type": "uint256"
        }
      ],
      "stateMutability": "view",
      "type": "function",
      "constant": true
    },
    {
      "inputs": [
        {
          "internalType": "uint256",
          "name": "",
          "type": "uint256"
        }
      ],
      "name": "requests",
      "outputs": [
        {
          "internalType": "uint256",
          "name": "id",
          "type": "uint256"
        },
        {
          "internalType": "uint256",
          "name": "sender",
          "type": "uint256"
        },
        {
          "internalType": "uint256",
          "name": "receiver",
          "type": "uint256"
        },
        {
          "internalType": "bool",
          "name": "responded",
          "type": "bool"
        },
        {
          "internalType": "bool",
          "name": "response",
          "type": "bool"
        }
      ],
      "stateMutability": "view",
      "type": "function",
      "constant": true
    },
    {
      "inputs": [
        {
          "internalType": "string",
          "name": "_name",
          "type": "string"
        },
        {
          "internalType": "string",
          "name": "_instType",
          "type": "string"
        },
        {
          "internalType": "string",
          "name": "_desc",
          "type": "string"
        },
        {
          "internalType": "string",
          "name": "_location",
          "type": "string"
        },
        {
          "internalType": "string",
          "name": "_phone",
          "type": "string"
        },
        {
          "internalType": "string",
          "name": "_email",
          "type": "string"
        }
      ],
      "name": "addInstitute",
      "outputs": [],
      "stateMutability": "nonpayable",
      "type": "function"
    },
    {
      "inputs": [
        {
          "internalType": "string",
          "name": "_name",
          "type": "string"
        },
        {
          "internalType": "string",
          "name": "_lastName",
          "type": "string"
        },
        {
          "internalType": "string",
          "name": "_email",
          "type": "string"
        },
        {
          "internalType": "string",
          "name": "_phone",
          "type": "string"
        },
        {
          "internalType": "string",
          "name": "_homeAddress",
          "type": "string"
        },
        {
          "internalType": "string",
          "name": "_nationalId",
          "type": "string"
        },
        {
          "internalType": "address payable",
          "name": "_wallet",
          "type": "address"
        },
        {
          "internalType": "uint256",
          "name": "_institute",
          "type": "uint256"
        }
      ],
      "name": "addApplicant",
      "outputs": [],
      "stateMutability": "nonpayable",
      "type": "function"
    },
    {
      "inputs": [
        {
          "internalType": "string",
          "name": "_name",
          "type": "string"
        },
        {
          "internalType": "string",
          "name": "_description",
          "type": "string"
        },
        {
          "internalType": "string",
          "name": "_orgType",
          "type": "string"
        },
        {
          "internalType": "string",
          "name": "_location",
          "type": "string"
        },
        {
          "internalType": "string",
          "name": "_phone",
          "type": "string"
        },
        {
          "internalType": "string",
          "name": "_email",
          "type": "string"
        }
      ],
      "name": "addOrganisation",
      "outputs": [],
      "stateMutability": "nonpayable",
      "type": "function"
    },
    {
      "inputs": [
        {
          "internalType": "string",
          "name": "_name",
          "type": "string"
        },
        {
          "internalType": "string",
          "name": "_lastName",
          "type": "string"
        },
        {
          "internalType": "string",
          "name": "_email",
          "type": "string"
        },
        {
          "internalType": "string",
          "name": "_phone",
          "type": "string"
        },
        {
          "internalType": "address payable",
          "name": "_wallet",
          "type": "address"
        },
        {
          "internalType": "uint256",
          "name": "_institute",
          "type": "uint256"
        }
      ],
      "name": "addLecturer",
      "outputs": [],
      "stateMutability": "nonpayable",
      "type": "function"
    },
    {
      "inputs": [
        {
          "internalType": "uint256",
          "name": "_sender",
          "type": "uint256"
        },
        {
          "internalType": "uint256",
          "name": "_receiver",
          "type": "uint256"
        },
        {
          "internalType": "bool",
          "name": "_responded",
          "type": "bool"
        },
        {
          "internalType": "bool",
          "name": "_response",
          "type": "bool"
        }
      ],
      "name": "addRequest",
      "outputs": [],
      "stateMutability": "nonpayable",
      "type": "function"
    },
    {
      "inputs": [
        {
          "internalType": "uint256",
          "name": "_lecInst",
          "type": "uint256"
        },
        {
          "internalType": "uint256",
          "name": "_student",
          "type": "uint256"
        },
        {
          "internalType": "uint256",
          "name": "_stuInst",
          "type": "uint256"
        }
      ],
      "name": "publishResult",
      "outputs": [
        {
          "internalType": "bool",
          "name": "",
          "type": "bool"
        }
      ],
      "stateMutability": "payable",
      "type": "function",
      "payable": true
    }
  ],
  "bytecode": "0x6080604052600060015560006002556000600355600060045560006005553480156200002a57600080fd5b506040518060400160405280600c81526020017f436572742d4d616e61676572000000000000000000000000000000000000000081525060009081620000719190620002f2565b50620003d9565b600081519050919050565b7f4e487b7100000000000000000000000000000000000000000000000000000000600052604160045260246000fd5b7f4e487b7100000000000000000000000000000000000000000000000000000000600052602260045260246000fd5b60006002820490506001821680620000fa57607f821691505b60208210810362000110576200010f620000b2565b5b50919050565b60008190508160005260206000209050919050565b60006020601f8301049050919050565b600082821b905092915050565b6000600883026200017a7fffffffffffffffffffffffffffffffffffffffffffffffffffffffffffffffff826200013b565b6200018686836200013b565b95508019841693508086168417925050509392505050565b6000819050919050565b6000819050919050565b6000620001d3620001cd620001c7846200019e565b620001a8565b6200019e565b9050919050565b6000819050919050565b620001ef83620001b2565b62000207620001fe82620001da565b84845462000148565b825550505050565b600090565b6200021e6200020f565b6200022b818484620001e4565b505050565b5b8181101562000253576200024760008262000214565b60018101905062000231565b5050565b601f821115620002a2576200026c8162000116565b62000277846200012b565b8101602085101562000287578190505b6200029f62000296856200012b565b83018262000230565b50505b505050565b600082821c905092915050565b6000620002c760001984600802620002a7565b1980831691505092915050565b6000620002e28383620002b4565b9150826002028217905092915050565b620002fd8262000078565b67ffffffffffffffff81111562000319576200031862000083565b5b620003258254620000e1565b6200033282828562000257565b600060209050601f8311600181146200036a576000841562000355578287015190505b620003618582620002d4565b865550620003d1565b601f1984166200037a8662000116565b60005b82811015620003a4578489015182556001820191506020850194506020810190506200037d565b86831015620003c45784890151620003c0601f891682620002b4565b8355505b6001600288020188555050505b505050505050565b61292a80620003e96000396000f3fe6080604052600436106100fe5760003560e01c806381d12c5811610095578063bed9e9ae11610064578063bed9e9ae1461037b578063ce0c0796146103a6578063d8106690146103cf578063d8121f54146103fa578063f3c689b11461042a576100fe565b806381d12c581461028857806383cde3d2146102c957806390ee20b01461030c5780639268a70f14610350576100fe565b80635badbe4c116100d15780635badbe4c146101c65780635ec70f26146101f157806363de53231461021a5780637e6b03d41461025f576100fe565b806306fdde031461010357806318f539931461012e578063246f8c441461015957806343e8efd01461019d575b600080fd5b34801561010f57600080fd5b50610118610453565b6040516101259190611ba4565b60405180910390f35b34801561013a57600080fd5b506101436104e1565b6040516101509190611bdf565b60405180910390f35b34801561016557600080fd5b50610180600480360381019061017b9190611c3a565b6104e7565b604051610194989796959493929190611ca8565b60405180910390f35b3480156101a957600080fd5b506101c460048036038101906101bf9190611d88565b61087f565b005b3480156101d257600080fd5b506101db610981565b6040516101e89190611bdf565b60405180910390f35b3480156101fd57600080fd5b5061021860048036038101906102139190611f50565b610987565b005b34801561022657600080fd5b50610241600480360381019061023c9190611c3a565b610b02565b6040516102569998979695949392919061204d565b60405180910390f35b34801561026b57600080fd5b5061028660048036038101906102819190612104565b610ea0565b005b34801561029457600080fd5b506102af60048036038101906102aa9190611c3a565b61105b565b6040516102c0959493929190612271565b60405180910390f35b3480156102d557600080fd5b506102f060048036038101906102eb9190611c3a565b6110ab565b60405161030397969594939291906122c4565b60405180910390f35b34801561031857600080fd5b50610333600480360381019061032e9190611c3a565b61132d565b604051610347989796959493929190611ca8565b60405180910390f35b34801561035c57600080fd5b506103656116c5565b6040516103729190611bdf565b60405180910390f35b34801561038757600080fd5b506103906116cb565b60405161039d9190611bdf565b60405180910390f35b3480156103b257600080fd5b506103cd60048036038101906103c8919061234f565b6116d1565b005b3480156103db57600080fd5b506103e4611877565b6040516103f19190611bdf565b60405180910390f35b610414600480360381019061040f9190612484565b61187d565b60405161042191906124d7565b60405180910390f35b34801561043657600080fd5b50610451600480360381019061044c919061234f565b611965565b005b6000805461046090612521565b80601f016020809104026020016040519081016040528092919081815260200182805461048c90612521565b80156104d95780601f106104ae576101008083540402835291602001916104d9565b820191906000526020600020905b8154815290600101906020018083116104bc57829003601f168201915b505050505081565b60015481565b600a60205280600052604060002060009150905080600001549080600101805461051090612521565b80601f016020809104026020016040519081016040528092919081815260200182805461053c90612521565b80156105895780601f1061055e57610100808354040283529160200191610589565b820191906000526020600020905b81548152906001019060200180831161056c57829003601f168201915b50505050509080600201805461059e90612521565b80601f01602080910402602001604051908101604052809291908181526020018280546105ca90612521565b80156106175780601f106105ec57610100808354040283529160200191610617565b820191906000526020600020905b8154815290600101906020018083116105fa57829003601f168201915b50505050509080600301805461062c90612521565b80601f016020809104026020016040519081016040528092919081815260200182805461065890612521565b80156106a55780601f1061067a576101008083540402835291602001916106a5565b820191906000526020600020905b81548152906001019060200180831161068857829003601f168201915b5050505050908060040180546106ba90612521565b80601f01602080910402602001604051908101604052809291908181526020018280546106e690612521565b80156107335780601f1061070857610100808354040283529160200191610733565b820191906000526020600020905b81548152906001019060200180831161071657829003601f168201915b50505050509080600501805461074890612521565b80601f016020809104026020016040519081016040528092919081815260200182805461077490612521565b80156107c15780601f10610796576101008083540402835291602001916107c1565b820191906000526020600020905b8154815290600101906020018083116107a457829003601f168201915b5050505050908060060180546107d690612521565b80601f016020809104026020016040519081016040528092919081815260200182805461080290612521565b801561084f5780601f106108245761010080835404028352916020019161084f565b820191906000526020600020905b81548152906001019060200180831161083257829003601f168201915b5050505050908060070160009054906101000a900473ffffffffffffffffffffffffffffffffffffffff16905088565b6003600081548092919061089290612581565b91905055506040518060a001604052806003548152602001858152602001848152602001831515815260200182151581525060086000600354815260200190815260200160002060008201518160000155602082015181600101556040820151816002015560608201518160030160006101000a81548160ff02191690831515021790555060808201518160030160016101000a81548160ff0219169083151502179055509050507f4b1e458a9e147a4f133ba9a586ceb4f5f152124826466295a4c3fa47c41351f060035485858585604051610973959493929190612271565b60405180910390a150505050565b60035481565b6002600081548092919061099a90612581565b91905055506040518060e0016040528060025481526020018781526020018681526020018581526020018481526020018373ffffffffffffffffffffffffffffffffffffffff16815260200182815250600760006002548152602001908152602001600020600082015181600001556020820151816001019081610a1e9190612775565b506040820151816002019081610a349190612775565b506060820151816003019081610a4a9190612775565b506080820151816004019081610a609190612775565b5060a08201518160050160006101000a81548173ffffffffffffffffffffffffffffffffffffffff021916908373ffffffffffffffffffffffffffffffffffffffff16021790555060c082015181600601559050507f9449c5d5aceb192b9681432e07256516b87f5c13bc24bb8bbf57e5c3e9c549c9600254878787878787604051610af297969594939291906122c4565b60405180910390a1505050505050565b6006602052806000526040600020600091509050806000015490806001018054610b2b90612521565b80601f0160208091040260200160405190810160405280929190818152602001828054610b5790612521565b8015610ba45780601f10610b7957610100808354040283529160200191610ba4565b820191906000526020600020905b815481529060010190602001808311610b8757829003601f168201915b505050505090806002018054610bb990612521565b80601f0160208091040260200160405190810160405280929190818152602001828054610be590612521565b8015610c325780601f10610c0757610100808354040283529160200191610c32565b820191906000526020600020905b815481529060010190602001808311610c1557829003601f168201915b505050505090806003018054610c4790612521565b80601f0160208091040260200160405190810160405280929190818152602001828054610c7390612521565b8015610cc05780601f10610c9557610100808354040283529160200191610cc0565b820191906000526020600020905b815481529060010190602001808311610ca357829003601f168201915b505050505090806004018054610cd590612521565b80601f0160208091040260200160405190810160405280929190818152602001828054610d0190612521565b8015610d4e5780601f10610d2357610100808354040283529160200191610d4e565b820191906000526020600020905b815481529060010190602001808311610d3157829003601f168201915b505050505090806005018054610d6390612521565b80601f0160208091040260200160405190810160405280929190818152602001828054610d8f90612521565b8015610ddc5780601f10610db157610100808354040283529160200191610ddc565b820191906000526020600020905b815481529060010190602001808311610dbf57829003601f168201915b505050505090806006018054610df190612521565b80601f0160208091040260200160405190810160405280929190818152602001828054610e1d90612521565b8015610e6a5780601f10610e3f57610100808354040283529160200191610e6a565b820191906000526020600020905b815481529060010190602001808311610e4d57829003601f168201915b5050505050908060070160009054906101000a900473ffffffffffffffffffffffffffffffffffffffff16908060080154905089565b60016000815480929190610eb390612581565b919050555060405180610120016040528060015481526020018981526020018881526020018781526020018681526020018581526020018481526020018373ffffffffffffffffffffffffffffffffffffffff16815260200182815250600660006001548152602001908152602001600020600082015181600001556020820151816001019081610f449190612775565b506040820151816002019081610f5a9190612775565b506060820151816003019081610f709190612775565b506080820151816004019081610f869190612775565b5060a0820151816005019081610f9c9190612775565b5060c0820151816006019081610fb29190612775565b5060e08201518160070160006101000a81548173ffffffffffffffffffffffffffffffffffffffff021916908373ffffffffffffffffffffffffffffffffffffffff16021790555061010082015181600801559050507f4483e97d8fe0d51ee920af74ffb97261066433c8281b86362ff8e1bb119e1d0a60015489898989898989896040516110499998979695949392919061204d565b60405180910390a15050505050505050565b60086020528060005260406000206000915090508060000154908060010154908060020154908060030160009054906101000a900460ff16908060030160019054906101000a900460ff16905085565b60076020528060005260406000206000915090508060000154908060010180546110d490612521565b80601f016020809104026020016040519081016040528092919081815260200182805461110090612521565b801561114d5780601f106111225761010080835404028352916020019161114d565b820191906000526020600020905b81548152906001019060200180831161113057829003601f168201915b50505050509080600201805461116290612521565b80601f016020809104026020016040519081016040528092919081815260200182805461118e90612521565b80156111db5780601f106111b0576101008083540402835291602001916111db565b820191906000526020600020905b8154815290600101906020018083116111be57829003601f168201915b5050505050908060030180546111f090612521565b80601f016020809104026020016040519081016040528092919081815260200182805461121c90612521565b80156112695780601f1061123e57610100808354040283529160200191611269565b820191906000526020600020905b81548152906001019060200180831161124c57829003601f168201915b50505050509080600401805461127e90612521565b80601f01602080910402602001604051908101604052809291908181526020018280546112aa90612521565b80156112f75780601f106112cc576101008083540402835291602001916112f7565b820191906000526020600020905b8154815290600101906020018083116112da57829003601f168201915b5050505050908060050160009054906101000a900473ffffffffffffffffffffffffffffffffffffffff16908060060154905087565b600960205280600052604060002060009150905080600001549080600101805461135690612521565b80601f016020809104026020016040519081016040528092919081815260200182805461138290612521565b80156113cf5780601f106113a4576101008083540402835291602001916113cf565b820191906000526020600020905b8154815290600101906020018083116113b257829003601f168201915b5050505050908060020180546113e490612521565b80601f016020809104026020016040519081016040528092919081815260200182805461141090612521565b801561145d5780601f106114325761010080835404028352916020019161145d565b820191906000526020600020905b81548152906001019060200180831161144057829003601f168201915b50505050509080600301805461147290612521565b80601f016020809104026020016040519081016040528092919081815260200182805461149e90612521565b80156114eb5780601f106114c0576101008083540402835291602001916114eb565b820191906000526020600020905b8154815290600101906020018083116114ce57829003601f168201915b50505050509080600401805461150090612521565b80601f016020809104026020016040519081016040528092919081815260200182805461152c90612521565b80156115795780601f1061154e57610100808354040283529160200191611579565b820191906000526020600020905b81548152906001019060200180831161155c57829003601f168201915b50505050509080600501805461158e90612521565b80601f01602080910402602001604051908101604052809291908181526020018280546115ba90612521565b80156116075780601f106115dc57610100808354040283529160200191611607565b820191906000526020600020905b8154815290600101906020018083116115ea57829003601f168201915b50505050509080600601805461161c90612521565b80601f016020809104026020016040519081016040528092919081815260200182805461164890612521565b80156116955780601f1061166a57610100808354040283529160200191611695565b820191906000526020600020905b81548152906001019060200180831161167857829003601f168201915b5050505050908060070160009054906101000a900473ffffffffffffffffffffffffffffffffffffffff16905088565b60045481565b60025481565b600560008154809291906116e490612581565b919050555060405180610100016040528060055481526020018781526020018681526020018581526020018481526020018381526020018281526020013373ffffffffffffffffffffffffffffffffffffffff16815250600a6000600554815260200190815260200160002060008201518160000155602082015181600101908161176f9190612775565b5060408201518160020190816117859190612775565b50606082015181600301908161179b9190612775565b5060808201518160040190816117b19190612775565b5060a08201518160050190816117c79190612775565b5060c08201518160060190816117dd9190612775565b5060e08201518160070160006101000a81548173ffffffffffffffffffffffffffffffffffffffff021916908373ffffffffffffffffffffffffffffffffffffffff1602179055509050507ff6702c2d5dbeeef2fd01e4c2c9de14d55ad4458d3992d35c4b5be53bf4dddfa660055487878787878733604051611867989796959493929190611ca8565b60405180910390a1505050505050565b60055481565b6000803411801561188d57508184145b156119595760006006600085815260200190815260200160002060070160009054906101000a900473ffffffffffffffffffffffffffffffffffffffff1690508073ffffffffffffffffffffffffffffffffffffffff166108fc349081150290604051600060405180830381858888f19350505050158015611913573d6000803e3d6000fd5b507f1af060d03322152c1c765c5be1a8412b91fced3c3e73a6497ac0a737525c1434338234604051611947939291906128bd565b60405180910390a1600191505061195e565b600090505b9392505050565b6004600081548092919061197890612581565b919050555060405180610100016040528060045481526020018781526020018681526020018581526020018481526020018381526020018281526020013373ffffffffffffffffffffffffffffffffffffffff16815250600960006004548152602001908152602001600020600082015181600001556020820151816001019081611a039190612775565b506040820151816002019081611a199190612775565b506060820151816003019081611a2f9190612775565b506080820151816004019081611a459190612775565b5060a0820151816005019081611a5b9190612775565b5060c0820151816006019081611a719190612775565b5060e08201518160070160006101000a81548173ffffffffffffffffffffffffffffffffffffffff021916908373ffffffffffffffffffffffffffffffffffffffff1602179055509050507f278ec33db8e3e3716e7d8160acdeaa5de5741af963bbcf658c8c45149c25ed5260045487878787878733604051611afb989796959493929190611ca8565b60405180910390a1505050505050565b600081519050919050565b600082825260208201905092915050565b60005b83811015611b45578082015181840152602081019050611b2a565b83811115611b54576000848401525b50505050565b6000601f19601f8301169050919050565b6000611b7682611b0b565b611b808185611b16565b9350611b90818560208601611b27565b611b9981611b5a565b840191505092915050565b60006020820190508181036000830152611bbe8184611b6b565b905092915050565b6000819050919050565b611bd981611bc6565b82525050565b6000602082019050611bf46000830184611bd0565b92915050565b6000604051905090565b600080fd5b600080fd5b611c1781611bc6565b8114611c2257600080fd5b50565b600081359050611c3481611c0e565b92915050565b600060208284031215611c5057611c4f611c04565b5b6000611c5e84828501611c25565b91505092915050565b600073ffffffffffffffffffffffffffffffffffffffff82169050919050565b6000611c9282611c67565b9050919050565b611ca281611c87565b82525050565b600061010082019050611cbe600083018b611bd0565b8181036020830152611cd0818a611b6b565b90508181036040830152611ce48189611b6b565b90508181036060830152611cf88188611b6b565b90508181036080830152611d0c8187611b6b565b905081810360a0830152611d208186611b6b565b905081810360c0830152611d348185611b6b565b9050611d4360e0830184611c99565b9998505050505050505050565b60008115159050919050565b611d6581611d50565b8114611d7057600080fd5b50565b600081359050611d8281611d5c565b92915050565b60008060008060808587031215611da257611da1611c04565b5b6000611db087828801611c25565b9450506020611dc187828801611c25565b9350506040611dd287828801611d73565b9250506060611de387828801611d73565b91505092959194509250565b600080fd5b600080fd5b7f4e487b7100000000000000000000000000000000000000000000000000000000600052604160045260246000fd5b611e3182611b5a565b810181811067ffffffffffffffff82111715611e5057611e4f611df9565b5b80604052505050565b6000611e63611bfa565b9050611e6f8282611e28565b919050565b600067ffffffffffffffff821115611e8f57611e8e611df9565b5b611e9882611b5a565b9050602081019050919050565b82818337600083830152505050565b6000611ec7611ec284611e74565b611e59565b905082815260208101848484011115611ee357611ee2611df4565b5b611eee848285611ea5565b509392505050565b600082601f830112611f0b57611f0a611def565b5b8135611f1b848260208601611eb4565b91505092915050565b611f2d81611c87565b8114611f3857600080fd5b50565b600081359050611f4a81611f24565b92915050565b60008060008060008060c08789031215611f6d57611f6c611c04565b5b600087013567ffffffffffffffff811115611f8b57611f8a611c09565b5b611f9789828a01611ef6565b965050602087013567ffffffffffffffff811115611fb857611fb7611c09565b5b611fc489828a01611ef6565b955050604087013567ffffffffffffffff811115611fe557611fe4611c09565b5b611ff189828a01611ef6565b945050606087013567ffffffffffffffff81111561201257612011611c09565b5b61201e89828a01611ef6565b935050608061202f89828a01611f3b565b92505060a061204089828a01611c25565b9150509295509295509295565b600061012082019050612063600083018c611bd0565b8181036020830152612075818b611b6b565b90508181036040830152612089818a611b6b565b9050818103606083015261209d8189611b6b565b905081810360808301526120b18188611b6b565b905081810360a08301526120c58187611b6b565b905081810360c08301526120d98186611b6b565b90506120e860e0830185611c99565b6120f6610100830184611bd0565b9a9950505050505050505050565b600080600080600080600080610100898b03121561212557612124611c04565b5b600089013567ffffffffffffffff81111561214357612142611c09565b5b61214f8b828c01611ef6565b985050602089013567ffffffffffffffff8111156121705761216f611c09565b5b61217c8b828c01611ef6565b975050604089013567ffffffffffffffff81111561219d5761219c611c09565b5b6121a98b828c01611ef6565b965050606089013567ffffffffffffffff8111156121ca576121c9611c09565b5b6121d68b828c01611ef6565b955050608089013567ffffffffffffffff8111156121f7576121f6611c09565b5b6122038b828c01611ef6565b94505060a089013567ffffffffffffffff81111561222457612223611c09565b5b6122308b828c01611ef6565b93505060c06122418b828c01611f3b565b92505060e06122528b828c01611c25565b9150509295985092959890939650565b61226b81611d50565b82525050565b600060a0820190506122866000830188611bd0565b6122936020830187611bd0565b6122a06040830186611bd0565b6122ad6060830185612262565b6122ba6080830184612262565b9695505050505050565b600060e0820190506122d9600083018a611bd0565b81810360208301526122eb8189611b6b565b905081810360408301526122ff8188611b6b565b905081810360608301526123138187611b6b565b905081810360808301526123278186611b6b565b905061233660a0830185611c99565b61234360c0830184611bd0565b98975050505050505050565b60008060008060008060c0878903121561236c5761236b611c04565b5b600087013567ffffffffffffffff81111561238a57612389611c09565b5b61239689828a01611ef6565b965050602087013567ffffffffffffffff8111156123b7576123b6611c09565b5b6123c389828a01611ef6565b955050604087013567ffffffffffffffff8111156123e4576123e3611c09565b5b6123f089828a01611ef6565b945050606087013567ffffffffffffffff81111561241157612410611c09565b5b61241d89828a01611ef6565b935050608087013567ffffffffffffffff81111561243e5761243d611c09565b5b61244a89828a01611ef6565b92505060a087013567ffffffffffffffff81111561246b5761246a611c09565b5b61247789828a01611ef6565b9150509295509295509295565b60008060006060848603121561249d5761249c611c04565b5b60006124ab86828701611c25565b93505060206124bc86828701611c25565b92505060406124cd86828701611c25565b9150509250925092565b60006020820190506124ec6000830184612262565b92915050565b7f4e487b7100000000000000000000000000000000000000000000000000000000600052602260045260246000fd5b6000600282049050600182168061253957607f821691505b60208210810361254c5761254b6124f2565b5b50919050565b7f4e487b7100000000000000000000000000000000000000000000000000000000600052601160045260246000fd5b600061258c82611bc6565b91507fffffffffffffffffffffffffffffffffffffffffffffffffffffffffffffffff82036125be576125bd612552565b5b600182019050919050565b60008190508160005260206000209050919050565b60006020601f8301049050919050565b600082821b905092915050565b60006008830261262b7fffffffffffffffffffffffffffffffffffffffffffffffffffffffffffffffff826125ee565b61263586836125ee565b95508019841693508086168417925050509392505050565b6000819050919050565b600061267261266d61266884611bc6565b61264d565b611bc6565b9050919050565b6000819050919050565b61268c83612657565b6126a061269882612679565b8484546125fb565b825550505050565b600090565b6126b56126a8565b6126c0818484612683565b505050565b5b818110156126e4576126d96000826126ad565b6001810190506126c6565b5050565b601f821115612729576126fa816125c9565b612703846125de565b81016020851015612712578190505b61272661271e856125de565b8301826126c5565b50505b505050565b600082821c905092915050565b600061274c6000198460080261272e565b1980831691505092915050565b6000612765838361273b565b9150826002028217905092915050565b61277e82611b0b565b67ffffffffffffffff81111561279757612796611df9565b5b6127a18254612521565b6127ac8282856126e8565b600060209050601f8311600181146127df57600084156127cd578287015190505b6127d78582612759565b86555061283f565b601f1984166127ed866125c9565b60005b82811015612815578489015182556001820191506020850194506020810190506127f0565b86831015612832578489015161282e601f89168261273b565b8355505b6001600288020188555050505b505050505050565b600061285282611c67565b9050919050565b61286281612847565b82525050565b600061288361287e61287984611c67565b61264d565b611c67565b9050919050565b600061289582612868565b9050919050565b60006128a78261288a565b9050919050565b6128b78161289c565b82525050565b60006060820190506128d26000830186612859565b6128df60208301856128ae565b6128ec6040830184611bd0565b94935050505056fea2646970667358221220e59bbb60a89fbd8aefcdf539bd1a2361fc713a943c8560c4f254663883b2224c64736f6c634300080f0033",
  "immutableReferences": {},
  "source": "// SPDX-License-Identifier: MIT\npragma solidity >=0.4.22 <0.9.0;\n\ncontract Certplace {\n    string public name;\n    uint256 public applicantCount = 0;\n    uint256 public lecCount = 0;\n    uint256 public requestCount = 0;\n    uint256 public instCount = 0;\n    uint256 public orgCount = 0;\n\n    mapping(uint256 => Applicant) public applicants;\n    mapping(uint256 => Lecturer) public lectures;\n    mapping(uint256 => Request) public requests;\n    mapping(uint256 => Institute) public institutes;\n    mapping(uint256 => Organisation) public organisations;\n\n    struct Applicant {\n        uint256 id;\n        string name;\n        string lastName;\n        string email;\n        string phone;\n        string homeAddress;\n        string nationalId;\n        address payable wallet;\n        uint256 institute;\n    }\n\n    event ApplicantAdded(\n        uint256 id,\n        string name,\n        string lastName,\n        string email,\n        string phone,\n        string homeAddress,\n        string nationalId,\n        address payable wallet,\n        uint256 institute\n    );\n\n    struct Lecturer {\n        uint256 id;\n        string name;\n        string lastName;\n        string email;\n        string phone;\n        address payable wallet;\n        uint256 institute;\n    }\n\n    event LecturerAdded(\n        uint256 id,\n        string name,\n        string lastName,\n        string email,\n        string phone,\n        address payable wallet,\n        uint256 institute\n    );\n\n    struct Request {\n        uint256 id;\n        uint256 sender;\n        uint256 receiver;\n        bool responded;\n        bool response;\n    }\n\n    event RequestAdded(\n        uint256 id,\n        uint256 sender,\n        uint256 receiver,\n        bool responded,\n        bool response\n    );\n\n    struct Institute {\n        uint256 id;\n        string name;\n        string instType;\n        string description;\n        string location;\n        string phone;\n        string email;\n        address payable wallet;\n    }\n\n    event InstituteCreated(\n        uint256 id,\n        string name,\n        string instType,\n        string description,\n        string location,\n        string phone,\n        string email,\n        address payable wallet\n    );\n\n    struct Organisation {\n        uint256 id;\n        string name;\n        string description;\n        string orgType;\n        string location;\n        string phone;\n        string email;\n        address payable wallet;\n    }\n\n    event OrganisationAdded(\n        uint256 id,\n        string name,\n        string description,\n        string orgType,\n        string location,\n        string phone,\n        string email,\n        address payable wallet\n    );\n\n     event RecordPublished(\n      address from,\n      address to,\n      uint tokens\n    );\n\n    constructor() public {\n        name = \"Cert-Manager\";\n    }\n\n    function addInstitute(\n        string memory _name,\n        string memory _instType,\n        string memory _desc,\n        string memory _location,\n        string memory _phone,\n        string memory _email\n    ) public {\n        //Make sure Values are correct\n\n        //Increament count\n        instCount++;\n\n        //Add Institute\n        institutes[instCount] = Institute(\n            instCount,\n            _name,\n            _instType,\n            _desc,\n            _location,\n            _phone,\n            _email,\n            payable(msg.sender)\n        );\n\n        //Trigger Event\n        emit InstituteCreated(\n            instCount,\n            _name,\n            _instType,\n            _desc,\n            _location,\n            _phone,\n            _email,\n            payable(msg.sender)\n        );\n    }\n\n    function addApplicant(\n        string memory _name,\n        string memory _lastName,\n        string memory _email,\n        string memory _phone,\n        string memory _homeAddress,\n        string memory _nationalId,\n        address payable _wallet,\n        uint256 _institute\n    ) public {\n        //increase Applicant count\n        applicantCount++;\n\n        //Add applicant\n        applicants[applicantCount] = Applicant(\n            applicantCount,\n            _name,\n            _lastName,\n            _email,\n            _phone,\n            _homeAddress,\n            _nationalId,\n            _wallet,\n            _institute\n        );\n\n        //Trigger and Event\n        emit ApplicantAdded(\n            applicantCount,\n            _name,\n            _lastName,\n            _email,\n            _phone,\n            _homeAddress,\n            _nationalId,\n            _wallet,\n            _institute\n        );\n    }\n\n    function addOrganisation(\n        string memory _name,\n        string memory _description,\n        string memory _orgType,\n        string memory _location,\n        string memory _phone,\n        string memory _email\n    ) public {\n        //Increament orgCount\n        orgCount++;\n\n        //Add organisation\n        organisations[orgCount] = Organisation(\n            orgCount,\n            _name,\n            _description,\n            _orgType,\n            _location,\n            _phone,\n            _email,\n            payable(msg.sender)\n        );\n\n        //Trigger event\n        emit OrganisationAdded(\n            orgCount,\n            _name,\n            _description,\n            _orgType,\n            _location,\n            _phone,\n            _email,\n            payable(msg.sender)\n        );\n    }\n\n    function addLecturer(\n        string memory _name,\n        string memory _lastName,\n        string memory _email,\n        string memory _phone,\n        address payable _wallet,\n        uint256 _institute\n    ) public {\n        //Increament lecCount\n        lecCount++;\n\n        //Add lecturer\n        lectures[lecCount] = Lecturer(\n            lecCount,\n            _name,\n            _lastName,\n            _email,\n            _phone,\n            _wallet,\n            _institute\n        );\n\n        //Trigger event\n        emit LecturerAdded(\n            lecCount,\n            _name,\n            _lastName,\n            _email,\n            _phone,\n            _wallet,\n            _institute\n        );\n    }\n\n    function addRequest(\n        uint256 _sender,\n        uint256 _receiver,\n        bool _responded,\n        bool _response\n    ) public {\n        //Increament requestCount\n        requestCount++;\n\n        //Add Request\n        requests[requestCount] = Request(\n            requestCount,\n            _sender,\n            _receiver,\n            _responded,\n            _response\n        );\n\n        //Trigger and event\n        emit RequestAdded(\n            requestCount,\n            _sender,\n            _receiver,\n            _responded,\n            _response\n        );\n    }\n\n    function publishResult(\n        uint256 _lecInst,\n        uint256 _student,\n        uint256 _stuInst\n    ) public payable returns (bool) {\n        if (msg.value > 0 && (_lecInst == _stuInst)) {\n            address payable _wallet = applicants[_student].wallet;\n            payable(_wallet).transfer(msg.value);\n\n            emit RecordPublished(msg.sender, _wallet, msg.value);\n            return true;\n        } else {\n            return false;\n        }\n    }\n}\n",
  "sourcePath": "/home/cmile/web3/document-system/src/contracts/Certplace.sol",
  "compiler": {
    "name": "solc",
    "version": "0.8.15+commit.e14f2714.Emscripten.clang"
  },
  "schemaVersion": "3.4.8",
  "updatedAt": "2022-08-10T06:49:08.807Z",
  "networkType": "ethereum",
  "devdoc": {
    "kind": "dev",
    "methods": {},
    "version": 1
  },
  "userdoc": {
    "kind": "user",
    "methods": {},
    "version": 1
  }
}